:1000000000300020110400005904000059040000D1
:1000100059040000590400005904000000000000C9
:100020000000000000000000000000005904000073
:100030005904000000000000590400007161000034
:10004000D7260000E1260000EB260000F526000080
:10005000FF26000009270000132700001D270000CD
:1000600027270000312700003B270000452700001C
:100070004F27000059270000632700006D2700006C
:1000800077270000590400005904000059040000BB
:1000900059040000590400005904000059040000EC
:1000A0005904000059040000774F0000814F000000
:1000B00059040000590400005904000059040000CC
:1000C00059040000590400005904000059040000BC
:1000D00059040000590400005904000059040000AC
:1000E000590400005904000059040000590400009C
:1000F000590400005904000059040000590400008C
:10010000590400005904000059040000590400007B
:10011000590400005904000059040000590400006B
:10012000590400005904000059040000590400005B
:10013000590400005904000059040000590400004B
:10014000590400005904000059040000590400003B
:10015000590400005904000059040000590400002B
:10016000590400005904000059040000590400001B
:1001700059040000590400003D3B0000473B0000CB
:10018000513B00005B3B0000653B00005904000050
:10019000590400006F3B0000793B00005904000047
:1001A000833B00005904000059040000590400007A
:1001B00059040000590400005904000059040000CB
:1001C0005904000059040000590400001D440000B7
:1001D0002944000035440000414400005904000057
:1001E000590400004D4400005944000065440000DB
:1001F0007144000059040000590400007D440000CF
:100200008944000095440000A14400005904000006
:1002100059040000AD440000B9440000C54400008A
:10022000D1440000590400005904000059040000A2
:10023000590400005904000059040000590400004A
:10024000590400005904000059040000590400003A
:10025000590400005904000059040000590400002A
:10026000590400005904000059040000590400001A
:10027000590400005904000059040000590400000A
:1002800059040000590400005904000059040000FA
:1002900059040000590400005904000059040000EA
:1002A00059040000590400005904000059040000DA
:1002B00059040000590400005904000059040000CA
:1002C00059040000590400005904000059040000BA
:1002D00059040000590400005904000059040000AA
:1002E000590400005904000059040000590400009A
:1002F000590400005904000059040000590400008A
:100300005904000059040000590400005904000079
:100310005904000059040000590400005904000069
:100320005904000059040000590400005904000059
:100330005904000059040000590400005904000049
:100340005904000059040000590400005904000039
:100350005904000059040000590400005904000029
:100360005904000059040000590400005904000019
:100370005904000059040000590400005904000009
:1003800059040000590400005904000059040000F9
:1003900059040000590400005904000059040000E9
:1003A00059040000590400005904000059040000D9
:1003B00059040000590400005904000059040000C9
:1003C00059040000590400005904000059040000B9
:1003D00059040000590400005904000059040000A9
:1003E0005904000059040000590400005904000099
:1003F000590400005904000059040000FFFFFFFFEA
:10040000FFFFFFFFFFFFFFFFFFFFFFFFFE7FFFFF7D
:1004100072B64FF000014FF000024FF000034FF0B2
:1004200000044FF000054FF000064FF00007B846FB
:10043000B946BA46BB46BC46044885460448804790
:100440000448804762B609F011F8FEE7003000204A
:10045000490D0000850D0000FFF7FEBF81F000414F
:1004600002E000BF83F0004330B54FEA41044FEA99
:10047000430594EA050F08BF90EA020F1FBF54EA34
:10048000000C55EA020C7FEA645C7FEA655C00F0D0
:10049000E2804FEA5454D4EB5555B8BF6D420CDDA1
:1004A0002C4480EA020281EA030382EA000083EA24
:1004B000010180EA020281EA0303362D88BF30BDC4
:1004C00011F0004F4FEA01314FF4801C4CEA11311A
:1004D00002D0404261EB410113F0004F4FEA033379
:1004E0004CEA133302D0524263EB430394EA050F04
:1004F00000F0A780A4F10104D5F1200E0DDB02FA73
:100500000EFC22FA05F2801841F1000103FA0EF206
:10051000801843FA05F359410EE0A5F120050EF1CC
:10052000200E012A03FA0EFC28BF4CF0020C43FAFD
:1005300005F3C01851EBE37101F0004507D54FF00A
:10054000000EDCF1000C7EEB00006EEB0101B1F55A
:10055000801F1BD3B1F5001F0CD349085FEA3000A0
:100560004FEA3C0C04F101044FEA445212F5800FAB
:1005700080F09A80BCF1004F08BF5FEA500C50F148
:10058000000041EB045141EA050130BD5FEA4C0C2B
:10059000404141EB010111F4801FA4F10104E9D1B4
:1005A00091F0000F04BF01460020B1FA81F308BFAB
:1005B0002033A3F10B03B3F120020CDA0C3208DD77
:1005C00002F1140CC2F10C0201FA0CF021FA02F152
:1005D0000CE002F11402D8BFC2F1200C01FA02F1C2
:1005E00020FA0CFCDCBF41EA0C019040E41AA2BFE7
:1005F00001EB0451294330BD6FEA04041F3C1CDAAF
:100600000C340EDC04F11404C4F1200220FA04F0CE
:1006100001FA02F340EA030021FA04F345EA030178
:1006200030BDC4F10C04C4F1200220FA02F001FA3A
:1006300004F340EA0300294630BD21FA04F02946BC
:1006400030BD94F0000F83F4801306BF81F4801155
:100650000134013D4EE77FEA645C18BF7FEA655CC8
:1006600029D094EA050F08BF90EA020F05D054EA9A
:10067000000C04BF1946104630BD91EA030F1EBF9F
:100680000021002030BD5FEA545C05D140004941A3
:1006900028BF41F0004130BD14F580043CBF01F596
:1006A000801130BD01F0004545F0FE4141F470017C
:1006B0004FF0000030BD7FEA645C1ABF1946104657
:1006C0007FEA655C1CBF0B46024650EA013406BF58
:1006D00052EA033591EA030F41F4002130BD00BF17
:1006E00090F0000F04BF0021704730B54FF48064D4
:1006F00004F132044FF000054FF0000150E700BF55
:1007000090F0000F04BF0021704730B54FF48064B3
:1007100004F1320410F0004548BF40424FF00001A0
:100720003EE700BF42004FEAE2014FEA31014FEAE3
:1007300002701FBF12F07F4393F07F4F81F0605132
:10074000704732F07F4208BF704793F07F4F04BF7D
:1007500041F40021704730B54FF4607401F000455A
:1007600021F000411CE700BF50EA010208BF7047BA
:1007700030B54FF000050AE050EA010208BF7047AB
:1007800030B511F0004502D5404261EB41014FF414
:10079000806404F132045FEA915C3FF4D8AE4FF01C
:1007A00003025FEADC0C18BF03325FEADC0C18BFFF
:1007B000033202EBDC02C2F1200300FA03FC20FA50
:1007C00002F001FA03FE40EA0E0021FA02F114449D
:1007D000BDE600BF70B54FF0FF0C4CF4E06C1CEAB6
:1007E00011541DBF1CEA135594EA0C0F95EA0C0F27
:1007F00000F0DEF82C4481EA030621EA4C5123EA9A
:100800004C5350EA013518BF52EA033541F48011C8
:1008100043F4801338D0A0FB02CE4FF00005E1FB7B
:1008200002E506F00042E0FB03E54FF00006E1FBC5
:1008300003569CF0000F18BF4EF0010EA4F1FF0408
:10084000B6F5007F64F5407404D25FEA4E0E6D4148
:1008500046EB060642EAC62141EA55514FEAC52059
:1008600040EA5E504FEACE2EB4F1FD0C88BFBCF5D5
:10087000E06F1ED8BEF1004F08BF5FEA500E50F186
:10088000000041EB045170BD06F0004646EA01014C
:1008900040EA020081EA0301B4EB5C04C2BFD4EB7E
:1008A0000C0541EA045170BD41F480114FF0000E77
:1008B000013C00F3AB8014F1360FDEBF002001F0E5
:1008C000004170BDC4F10004203C35DA0C341BDC5F
:1008D00004F11404C4F1200500FA05F320FA04F031
:1008E00001FA05F240EA020001F0004221F0004165
:1008F00010EBD37021FA04F642EB06015EEA430ED8
:1009000008BF20EAD37070BDC4F10C04C4F1200507
:1009100000FA04F320FA05F001FA04F240EA0200BA
:1009200001F0004110EBD37041F100015EEA430E8B
:1009300008BF20EAD37070BDC4F1200500FA05F2AB
:100940004EEA020E20FA04F301FA05F243EA02032A
:1009500021FA04F001F0004121FA04F220EA020039
:1009600000EBD3705EEA430E08BF20EAD37070BD7F
:1009700094F0000F0FD101F00046400041EB01015F
:1009800011F4801F08BF013CF7D041EA060195F041
:10099000000F18BF704703F00046520043EB0303FB
:1009A00013F4801F08BF013DF7D043EA06037047E8
:1009B00094EA0C0F0CEA135518BF95EA0C0F0CD0F3
:1009C00050EA410618BF52EA4306D1D181EA030139
:1009D00001F000414FF0000070BD50EA410606BF33
:1009E0001046194652EA430619D094EA0C0F02D178
:1009F00050EA013613D195EA0C0F05D152EA0336BD
:100A00001CBF104619460AD181EA030101F00041DA
:100A100041F0FE4141F470014FF0000070BD41F023
:100A2000FE4141F4780170BD70B54FF0FF0C4CF4FD
:100A3000E06C1CEA11541DBF1CEA135594EA0C0F1C
:100A400095EA0C0F00F0A7F8A4EB050481EA030E69
:100A500052EA03354FEA013100F088804FEA033350
:100A60004FF0805545EA131343EA12634FEA02221E
:100A700045EA111545EA10654FEA00260EF00041DF
:100A80009D4208BF964244F1FD0404F5407402D231
:100A90005B084FEA3202B61A65EB03055B084FEAC2
:100AA00032024FF480104FF4002CB6EB020E75EBBF
:100AB000030E22BFB61A754640EA0C005B084FEAE7
:100AC0003202B6EB020E75EB030E22BFB61A754664
:100AD00040EA5C005B084FEA3202B6EB020E75EBAF
:100AE000030E22BFB61A754640EA9C005B084FEA27
:100AF0003202B6EB020E75EB030E22BFB61A754634
:100B000040EADC0055EA060E18D04FEA051545EA22
:100B100016754FEA06164FEAC30343EA52734FEACB
:100B2000C2025FEA1C1CC0D111F4801F0BD141EA44
:100B300000014FF000004FF0004CB6E711F4801FA9
:100B400004BF01430020B4F1FD0C88BFBCF5E06F89
:100B50003FF6AFAEB5EB030C04BFB6EB020C5FEA99
:100B6000500C50F1000041EB045170BD0EF0004EEE
:100B70004EEA113114EB5C04C2BFD4EB0C0541EA20
:100B8000045170BD41F480114FF0000E013C90E61D
:100B900045EA060E8DE60CEA135594EA0C0F08BFE1
:100BA00095EA0C0F3FF43BAF94EA0C0F0AD150EAE0
:100BB00001347FF434AF95EA0C0F7FF425AF104673
:100BC00019462CE795EA0C0F06D152EA03353FF49B
:100BD000FDAE1046194622E750EA410618BF52EA18
:100BE00043067FF4C5AE50EA41047FF40DAF52EAEC
:100BF00043057FF4EBAE12E74FF0FF3C06E000BF89
:100C00004FF0010C02E000BF4FF0010C4DF804CD95
:100C10004FEA410C7FEA6C5C4FEA430C18BF7FEA55
:100C20006C5C1BD001B050EA410C0CBF52EA430C83
:100C300091EA030F02BF90EA020F0020704710F103
:100C4000000F91EA030F58BF994208BF90422CBF92
:100C5000D8176FEAE37040F0010070474FEA410C8B
:100C60007FEA6C5C02D150EA013C07D14FEA430CA9
:100C70007FEA6C5CD6D152EA033CD3D05DF8040B1A
:100C8000704700BF8446104662468C46194663464C
:100C900000E000BF01B5FFF7B7FF002848BF10F123
:100CA000000F01BD4DF808EDFFF7F4FF0CBF012068
:100CB00000205DF808FB00BF4DF808EDFFF7EAFFE4
:100CC00034BF012000205DF808FB00BF4DF808ED9F
:100CD000FFF7E0FF94BF012000205DF808FB00BF94
:100CE0004DF808EDFFF7CEFF94BF012000205DF81E
:100CF00008FB00BF4DF808EDFFF7C4FF34BF01202B
:100D000000205DF808FB00BF4A0011D212F5001266
:100D100011D20DD56FF47873B3EB62520ED44FEA53
:100D2000C12343F0004343EA505323FA02F07047D3
:100D30004FF00000704750EA013002D14FF0FF3011
:100D400070474FF0000070474FF0E023D3F8882D34
:100D500042F47002C3F8882DD3F8342F22F0804279
:100D6000C3F8342F054B064A5A605A6842F22012E3
:100D70001A604FF6FF729A60704700BF002005406E
:100D800020C528D9264B274A9A4208D01346244822
:100D9000254A13F8011B02F8011B9842F9D1234B95
:100DA000234A9A4208D013462048224A13F8011BCE
:100DB00002F8011B8342F9D11F4B204A9A4206D008
:100DC000134600211C4A03F8011B9342FBD11C4B24
:100DD0001C4A9A4208D0134619481B4A13F8011BB3
:100DE00002F8011B8342F9D1184B194A9A4212D0DA
:100DF00010B4184CA40808D01946002351F8040B6D
:100E000042F8040B0133A342F8D1134B104A1A6085
:100E10005DF8044B7047104B0C4A1A60704700BFD6
:100E2000489C0000B498000000C4FF1F489C0000CC
:100E3000489C000094C7FF1F1C07002000000020F2
:100E4000489C0000489C00000000002000000000BA
:100E500000C0FF1F0004000008ED00E030B4134B99
:100E600053F8200053881478A3F5706292B2052AD3
:100E70000BD80F4A556825F4E025556055681B04CA
:100E800003F4E0232B435360152350F8212003F093
:100E90001F0322F05F021343002C14BF40220022E4
:100EA000134340F8213030BC704700BFFC94000071
:100EB00000800440044B53F82020D2F8903013F007
:100EC000800FFAD1704700BFFC940000044B53F828
:100ED0002030123153F82130C3F30B0313807047D5
:100EE000FC940000074B5B69DBB2042B06D0802B1F
:100EF00006D0012B0CBF0120042070470220704750
:100F00000320704700E00740044BD3F8003113F092
:100F1000807F1ABF024B18680020704700400640CF
:100F20003400002010B584B00B4600293BD0444A61
:100F3000D2F8002112F0007F7DD1414AD2F8001191
:100F400021F40001C2F800114FF08061C2F80011D5
:100F500000213C4A1160002870D05A7A120202F433
:100F6000E062197A01F007010A433548C0F804210C
:100F7000DA79120102F030029979C90001F0080112
:100F80000A435979890001F004010A43C0F8082195
:100F90001A79012A29D0E2B1022A32D01A68294BE3
:100FA0001A60294C3BE000238DF804308DF80C309A
:100FB00001228DF808208DF809208DF805208DF884
:100FC000063002238DF8073004AB204A43F8102D79
:100FD000ADE71A7B002A14BF4FF40002002242F052
:100FE00001021749C1F80021D8E71A7B002A14BF73
:100FF0004FF40002002242F001121149C1F8002111
:10100000CCE71A7B002A14BF4FF403024FF440329E
:1010100042F001020A49C1F80021BFE7013CFFF795
:1010200073FF18B9002CF9D1032005E0002C14BF80
:101030000020032000E0022004B010BD0020FBE7E8
:10104000004006403400002088E7300000127A009B
:10105000084BD3F8003213F0807F09D0054BD3F84A
:10106000083203F00103002B034808BF002070473B
:10107000002070470040064000127A0010B582B090
:101080000B46002938D02D4AD2F8002212F0007FFA
:101090004FD12A4AD2F8001221F40001C2F80012FE
:1010A0000021C2F80012002846D09A78120202F4F9
:1010B000E062597801F007010A432049C1F804228F
:1010C0001A7802F00102C1F8082259799A791B793D
:1010D000002B14BF03230123002914BF0421002186
:1010E0000B43002A14BF4FF4000200221343134A9B
:1010F000C2F80032642410E000238DF8043001228D
:101100008DF805208DF806308DF801208DF802202D
:1011100002AB03F8082DB6E7013CFFF799FF18B9B9
:10112000002CF9D1032005E0002C14BF002003207F
:1011300000E0022002B010BD0020FBE700400640A6
:10114000054BD3F8003313F0807F1DBF024BD3F85B
:10115000083302480020704700400640006CDC0263
:1011600010B582B00B46002932D0294AD2F80023AC
:1011700012F0007F47D1264AD2F8001321F4000173
:10118000C2F800134FF08061C2F8001300283DD070
:101190009A78120202F4E062597801F007010A43DA
:1011A0001B49C1F804231A7802F00302C1F808238E
:1011B0009A795B79002B14BF01230923002A14BFFD
:1011C0004FF4000200221343C1F8003314240EE050
:1011D00001238DF8053000228DF806208DF80130AE
:1011E0008DF8023002AB03F8082DBEE7013CFFF793
:1011F000A7FF18B9002CF9D1032005E0002C14BF7B
:101200000020032000E0022002B010BD0020FBE718
:101210000040064008B50F4BD3F8003613F0807F2E
:1012200002D10023184608BDFFF76EFE03460028D2
:10123000F8D00849D1F80826C2F302220132B0FBE7
:10124000F2F3D1F80826C2F30442103203FB02F392
:101250005B08E7E70040064010B584B00C4699B142
:101260003D4BD3F8003613F0007F72D13A4BD3F8E0
:10127000002622F40002C3F800264FF08062C3F873
:101280000026A0B9002065E000238DF804308DF819
:101290000B3001228DF808208DF809208DF80530DB
:1012A00007228DF806208DF8073001ACD8E7FFF74C
:1012B0002BFE63791B0203F4E063227902F007023C
:1012C00013432549C1F8043663781B0203F4E06335
:1012D000A278120402F4F8121343C1F808362378F6
:1012E000012B16D04BB1022B1FD04FF47A74FFF7AD
:1012F00091FF48BB34B3013CF9E7E379002B14BFFD
:101300004FF40003002343F00103134AC2F80036F0
:10131000EBE7E379002B14BF4FF40003002343F005
:1013200001130D4AC2F80036DFE7E379002B14BF42
:101330004FF403034FF4403343F00103064AC2F86D
:101340000036D2E7032005E0002C14BF0020032064
:1013500000E0022004B010BD004006402DE9F0413D
:1013600080460D468C7801344E7806FB04460F7893
:1013700007FB0447CB78013B052B1CD8DFE803F0C3
:101380000312151B1B18FFF7BFFD0009B8F1020F70
:101390004AD0B8F1030F7BD0B8F1010F0DD0002077
:1013A000BDE8F081FFF754FEEFE7FFF7C9FEECE779
:1013B000FFF730FFE9E70020E7E7EA7802EB4201B8
:1013C0005B4B53F821301B0904FB03F4A04200F2ED
:1013D00093800B46564901EB83035B681B0906FBB0
:1013E00003F6B04200F28B8002EB420301EB830371
:1013F0009B681B0907FB03F7B84200F28380AB78B8
:101400001B0403F47023120602F0706213432A785F
:1014100002F00F0213436A781201D2B21343454A15
:1014200053610020BDE8F081EA7802EB4201424BB3
:1014300053F821301B0904FB03F4A04265D80B4686
:101440003D4901EB83035B681B0906FB03F6B042D1
:101450005ED802EB420301EB83039B681B0907FB89
:1014600003F7B84257D8AB781B0403F47023120675
:1014700002F0706213432A7802F00F0213436A7875
:101480001201D2B213432B4A93610020BDE8F081D0
:10149000EB7803EB4301294A52F82120120904FB9F
:1014A00002F4A0423AD80A46244901EB820252686B
:1014B000120906FB02F6B04233D803EB430201EBFC
:1014C00082029268120907FB02F7B8422CD8AA7868
:1014D000120402F470221B0603F0706313432A788F
:1014E00002F00F0213436A781201D2B21343114A79
:1014F000D3610020BDE8F0810120BDE8F08101202A
:10150000BDE8F0810120BDE8F0810120BDE8F08157
:101510000120BDE8F0810120BDE8F0810120BDE897
:10152000F0810120BDE8F0810120BDE8F08100BF1D
:10153000F095000000400640449600009C95000095
:1015400038B50546FFF7CEFC2946FFF707FF0446EE
:1015500058B9E8780A220849013A0B69C3F30363D2
:10156000984204D0002AF7D10324204638BD002A2F
:1015700008BF0324F9E700BF0040064010B5044649
:101580001B4B1B69C3F30363013B052B1DD8DFE82D
:1015900003F00313161C1C19FFF7B6FC144B1B6950
:1015A000C3F303430133B0FBF3F0012C0FD0ECB1D4
:1015B000022C14D0002010BDFFF74AFDEEE7FFF724
:1015C000BFFDEBE7FFF726FEE8E70020E6E7084B64
:1015D0001B69C3F303130133B0FBF3F010BD044BDD
:1015E0001B6903F00F030133B0FBF3F010BD00BF24
:1015F0000040064008B50F4B1B6AC3F30363062B7C
:1016000015D8DFE803F004080B0E141411000220B3
:10161000FFF7B4FF08BDFFF777FC08BDFFF718FD23
:1016200008BDFFF78DFD08BDFFF7F4FD08BD0020E4
:1016300008BD00BF0040064008B541B1012931D0C6
:101640000020024610B1431E22FA03F008BD043800
:10165000032852D8DFE800F00B02141DFFF770FDDD
:101660000246294BD3F8040300F00700EAE7FFF72E
:10167000EFFC0246244BD3F8040200F00700E1E738
:10168000FFF742FC0246204BD3F8040100F00700AC
:10169000D8E7FFF7BFFD02461B4BD3F8040600F066
:1016A0000700CFE7043803282AD8DFE800F00B0250
:1016B000141DFFF745FD0246134BD3F80403C0F396
:1016C0000220BFE7FFF7C4FC02460F4BD3F8040229
:1016D000C0F30220B6E7FFF717FC02460A4BD3F827
:1016E0000401C0F30220ADE7FFF794FD0246064B6C
:1016F000D3F80406C0F30220A4E700200246A1E7C5
:10170000002002469EE700BF0040064008B5114B8E
:101710001B69C3F30113032B19D8DFE803F0020799
:10172000101300210620FFF787FF08BD094B186939
:1017300000F00200002818BF4FF4FA4008BD064B25
:10174000186808BD00210520FFF776FF08BD0020BE
:1017500008BD00BF008004401400002038B51C4BB9
:1017600033F810309B0003F1804303F5CA231D6852
:10177000C5F3C0051C6804F00704AC4225D3186803
:10178000C0F3807010B31B68C3F30263013B052BE9
:1017900019D8DFE803F0030C101818140620FFF71F
:1017A0004BFF0134B0FBF4F005FB000038BD042012
:1017B000FFF742FFF5E70520FFF73EFFF1E70720BF
:1017C000FFF73AFFEDE70020EBE7002038BD00BF50
:1017D000049500000F4B1B69C3F38103022B07D054
:1017E000032B0ED0002B0CBF4FF4FA3000207047B3
:1017F000084B186900F00200002818BF4FF4FA40A7
:101800007047044B186900F00200002818BF4FF41D
:10181000FA4070470080044008B5244B5B6813F41D
:10182000006F40D0214B5B68C3F303130E2B09D824
:10183000DFE803F00A080D081208171C20252F08FE
:1018400029082C00002026E0FFF7D4FE23E0012128
:101850000620FFF7F1FE1EE001210420FFF7ECFE59
:1018600019E001210520FFF7E7FE14E00020FFF753
:1018700085FE10E001210720FFF7DEFE0BE00120CE
:10188000FFF77CFE07E0FFF7A5FF04E0FFF73EFF50
:1018900001E04FF4FA30054B5B68C3F302230133D8
:1018A000B0FBF3F008BD002008BD00BF008004407D
:1018B000F0B5A1B028B304460646002800F0FF802A
:1018C000644B1B69C3F30363032B00F0C980FFF76C
:1018D00037FC002800F0B48003238DF80730002285
:1018E0008DF8062001228DF8052020A800F87C3D07
:1018F000FFF726FE0546002800F0B280284621B0FA
:10190000F0BD01238DF80B3000228DF80C208DF8EE
:101910000D308DF80E208DF808308DF809308DF8D7
:101920000A308DF816308DF814308DF815208DF8AA
:101930000F208DF810308DF811308DF838300D9261
:101940008DF82530444906918DF81C208DF824200F
:101950008DF81D308DF81E2002208DF81F008DF8A7
:1019600020308DF821308DF830308DF828208DF81A
:101970002F208DF829200C218DF82A108DF82B208E
:101980008DF82C308DF82D308DF83D3003218DF8F9
:101990003C108DF84B308DF841108DF840208DF8BB
:1019A0003F308DF83E308DF845008DF844308DF88D
:1019B00043208DF8421006208DF849008DF848200C
:1019C0008DF847308DF8461024491E911D211D9138
:1019D0008DF84C308DF84D208DF84E208DF84F202D
:1019E0008DF850308DF854308DF853308DF85220EA
:1019F0008DF851208DF868308DF869308DF86A3097
:101A00008DF86B308DF86C308DF86D308DF873304B
:101A10008DF858301792189219928DF86E308DF813
:101A20006F308DF870208DF871208DF872208DF850
:101A30007C308DF87D308DF87E2002AE34463FE755
:101A400000210120FFF78CFB054600287FF456AFEC
:101A500042E700BF0040064000127A00E8C6FF1FC0
:101A60003146E078FFF70AFB0546002800F02381A5
:101A7000FFF738FA022800F05881032800F0588157
:101A8000012800F03281002D7FF438AF94F8303017
:101A900013B1E26AA84B1A6094F8353053B1A749E4
:101AA0000A6A22F0706294F834301B0603F0706307
:101AB00013430B6294F84330002B40F0A68114F1DD
:101AC0006C0F35D0236F002B32D0E36E83B300212F
:101AD0009B489C4D01EB8102236F9B5C30F81330D7
:101AE0009B0003F1804303F5CA231E6826F080465D
:101AF0001E60236F9F189E5CBB781B0603F0E0639B
:101B0000FA78D20002F0080213433A7902F0070291
:101B100013437A78002A14BF4FF080420022134307
:101B200030F8162045F822300131E36E9942D1D3C6
:101B300094F84430C3B194F8463094F84720824971
:101B4000496821F47F6194F84500002814BF4FF4E0
:101B5000006000201B01DBB2120202F4E0621343BA
:101B60000B430343784A536094F84830DBB194F850
:101B70004A3094F849207449096921F03F0194F8EA
:101B80004C00084394F84B10002914BF0221002197
:101B90009B0003F00C030343120102F030021343D5
:101BA0000B43694A136194F86030002B37D0664BC1
:101BB000196C21F0010194F861200A431A641B6C2E
:101BC00023F0020394F86220002A14BF02220022AC
:101BD00013435D4A1364136C23F0040394F86320E9
:101BE000002A14BF042200221343574A1364136CC3
:101BF00023F0080394F86420002A14BF082200226E
:101C00001343514A1364136C23F0100394F86520B6
:101C1000002A14BF1022002213434B4A136494F885
:101C2000503033B1494B626D1A60A26D5A60E26D5B
:101C30009A6094F86630EBB1434A936E0020906648
:101C4000516821F4805194F868301B0303F48053E9
:101C50000B435360906694F867305BB194F8693039
:101C60005B0003F00E0394F86A2042F080521343A5
:101C7000354A936694F87430002B00F0E2803449C2
:101C80008B7803F07F0394F8752082F0010243EA19
:101C9000C213DBB28B7094F97630002BBCBF2033BB
:101CA0005BB22B490A7903F01F0302F0E0021343F1
:101CB0000B71002522E604F11001607FFFF732F975
:101CC000054600287FF4D4AE04F1200194F82800E2
:101CD000FFF7C2FA0546FFF705F9022825D00328C9
:101CE00026D0012801D0002601E004F13606002D9F
:101CF0007FF4C9AEF378032B2CD08DF80730B3787E
:101D00008DF8063073788DF80530337820A800F808
:101D10007C3DFFF715FC054600287FF4B4AEE11DBD
:101D2000A07BFFF71DFA0546ADE604F13A06DEE7B3
:101D300004F13E06DBE700BF14000020004006402F
:101D40000495000000500640008004401800002068
:101D500000D0074094F828300BBB637F93BBE37837
:101D6000002B42D10125002D7FF48DAEE11DA07B1B
:101D7000FFF7F6F9054600287FF485AEF3788DF875
:101D80000730B3788DF8063073788DF805303378E6
:101D900020A800F87C3DFFF7D3FB054673E6062339
:101DA0008DF8073002238DF8063001238DF80530B9
:101DB00020A800F87C3DFFF7C3FB0546637F7BB19D
:101DC0000128D0D101238DF8073000228DF806209C
:101DD0008DF8053020A800F87C3DFFF7B1FB0546E3
:101DE000E378002BBFD0012DBDD102238DF8073041
:101DF00000238DF806308DF8053020A8012300F867
:101E00007C3DFFF79DFB0546ADE704F1360101205F
:101E1000FFF7A4FA054600287FF470AD04F13A01FB
:101E20000220FFF79BFA054600287FF467AD04F116
:101E30003E010320FFF792FA054600287FF45EADCD
:101E40003DE600255AE500BF70B504460D46112851
:101E500007D9232840F285804A2840F24F81042088
:101E600070BD11287AD8DFE800F00913191F242962
:101E70002E33383C41484F565D646B720020FFF7AB
:101E80007DFB03460020002D00F0AA812B6070BD71
:101E90000120FFF773FB03460020F4E70220FFF761
:101EA0006DFB03460020EEE7FFF7B6FC034600207B
:101EB000E9E7FFF7CDF803460020E4E7FFF740F934
:101EC00003460020DFE7FFF71FF803460020DAE7AC
:101ED000FFF7A0F903460020D5E7A84B1B680020B8
:101EE000D1E7FFF787FB03460020CCE70021042061
:101EF000FFF7A2FB03460020C5E701210420FFF7FE
:101F00009BFB03460020BEE700210520FFF794FB62
:101F100003460020B7E701210520FFF78DFB0346AC
:101F20000020B0E700210620FFF786FB03460020D3
:101F3000A9E701210620FFF77FFB03460020A2E767
:101F400000210720FFF778FB034600209BE70121D3
:101F50000720FFF771FB0346002094E700230420CD
:101F600091E7A0F115040E2C00F29980DFE804F04F
:101F70000814202B353E434F5A656D767F878F00BE
:101F80007F4BDB68C3F30163022B00F28B807D4A39
:101F900052F82330002024E0794BDB68C3F38163DF
:101FA000022B00F28280774A52F82330002018E09A
:101FB000734BDB68C3F30173022B79D8714A52F873
:101FC000233000200DE06E4BDB689B0F022B72D894
:101FD0006C4A52F82330002003E0FFF71DFC034653
:101FE0000020002D00F0FC802B6070BDFFF78EFB01
:101FF00003460020F5E7644B9B78DB0902D0002301
:102000001846EEE7FFF7E6FB03460020E9E75E4BE4
:102010009B78DB0952D15A4B1B6913F0010350D155
:102020000020DEE7584B9B78DB094ED1544B1B69EF
:1020300013F002034CD10020D3E7534B9B78DB090C
:102040004AD14FF4FA330020CBE74D4B1B6CC3F35E
:102050000013002B43D14FF48070C2E7484B1B6C38
:10206000C3F3C003002B3DD14FF48070B9E7444B5C
:102070001B6CC3F38003C3BB4FF48070B1E7404BCC
:102080001B6CC3F340039BBB4FF48070A9E73C4B30
:102090001B6C13F001032ED14FF48070A1E70023D5
:1020A00004209EE7002318469BE70023184698E784
:1020B0000023184695E70023184692E700231846A8
:1020C0008FE74FF47A7300208BE70023184688E7E8
:1020D0004FF4FA43002084E70023184681E70023E9
:1020E00018467EE7002318467BE70023184678E76A
:1020F0000023184675E70023184672E7242805D800
:1021000004200023002D6BD02B6070BDA0F13303A1
:10211000DBB2172B07D81D4A22FA03F313F0010F85
:1021200018BF0420EDD11A4B33F81420194B53F883
:10213000223013F0804F42D14FF48070E1E701204C
:10214000FFF71CFA002845D100234FF48070D9E72F
:102150000020FFF713FA0028F6D03BE00220FFF73B
:102160000DFA0028F0D035E016F0080F14D116F063
:10217000100F19D100234FF48070C3E71400002022
:10218000008004401800002000D00740A11080000B
:10219000049500000050064000212046FFF7DEFABB
:1021A000034616F0100F04D001212046FFF7D6FA9F
:1021B0000346002B14BF00204FF48070A2E7094BA8
:1021C0001E5D16F0200FBAD116F0400FC0D116F0E8
:1021D000800FC3D116F0180FC6D10023184691E71F
:1021E00070BD00BF9896000010B4054C20602171AE
:1021F000A2602373637300205DF8044B704700BF37
:1022000024000020F0B583B007460E468DF8040088
:102210008DF8051002F0A8FD334B1C7B5C73012385
:102220008DF80630002C4AD000242F4D04E00134F4
:10223000E4B22B7BA34242D9AB6853F82430002B85
:10224000F5D01A79022AF2D01A68996801A8904745
:102250000028ECD06C73002EE9D140F20315002366
:102260008DF80630A400204E20E00134E4B23B7B20
:10227000A34212D9BB6853F82430002BF5D01A7949
:10228000012AF2D01A68996801A890470028ECD07A
:102290007C73002EE9D14FF4827502F057FD284679
:1022A00003B0F0BD043C14F1040FF6D0B3681B5921
:1022B000002BF7D01A68996801A89047F2E70A4DF9
:1022C0002B6853F82700FFF7F3FA6F7105460028D3
:1022D000C5D102238DF80630034B1B7B002BDCD0CD
:1022E0000024014FC6E700BF2400002008B5FFF717
:1022F000ABFD08BD10B4064B1B6853F8204061606D
:1023000053F820309A6000205DF8044B704700BFFE
:102310003800002008B5084B1B6853F8203000F047
:102320000F00064A1077D07723B15A6812B1197B93
:102330009868904708BD00BF38000020008000402A
:1023400038B5054600F00F0400222146094800F088
:1023500023F9094B1B6853F8253053B1054A14770C
:10236000D477947701221A735A6812B1197B98684E
:10237000904738BD00800040380000202DE9F04F24
:1023800087B09DF84070119D0124BC405FFA84FC29
:10239000B5FBFCF60CFB1656002E14BF4FF0010ADD
:1023A0004FF0000A03D0504607B0BDE8F08F059308
:1023B00004920391804600F00F06DFF80091314649
:1023C000484600F0EEF8D9F8003023F08003C9F851
:1023D0000030730103F1804202F5004B02F5104218
:1023E000049810604B4441F21002059898500197F0
:1023F000009700231A463146484600F0F7F8039B41
:10240000032B12D8DFE803F0022D3D4C002241F2ED
:1024100004032BF8032064B2A4B2730103F18043D8
:1024200003F5004341F214029C52244C2A463146E3
:10243000204600F0F3F801223146204600F01CF956
:1024400004EB461641F21C02B35A1BB243F00203DE
:102450009BB2B3521A4B1B6853F8283000221A73F0
:10246000A1E764B2A4B241F204032BF80340730164
:1024700003F1804303F50043002141F21402995215
:10248000D3E764B2A4B241F204032BF80340730112
:1024900003F1804303F5004341F214029C52C4E768
:1024A000002241F204032BF80320730103F180435F
:1024B00003F5004341F214015A52B6E70080004090
:1024C0003800002070B582B00446079D01959DF844
:1024D00018500095FFF752FF054610B1284602B08C
:1024E00070BD04F00F040F4E089A2146304600F0EC
:1024F000C3F806EB441641F21C03F35A23F0080319
:102500001B041B0C9DF82420002A14BF0822002263
:102510001343640104F1804404F5004441F21C02B9
:10252000A352DBE70080004008B5012200F00F0154
:10253000024800F031F8002008BD00BF00800040D4
:1025400008B5002200F00F01024800F025F8002035
:1025500008BD00BF0080004000F00F00430103F100
:10256000804303F5004341F21C029B5A23F0080309
:102570001B041B0C002914BF082200221343400136
:1025800000F1804000F5004041F21C028352704788
:1025900000487047008000400AB981767047C176D4
:1025A000704700EB4111002341F208028B5001F506
:1025B0008052136041F204028B5241F206028B52A8
:1025C00041F20C028B5041F210028B5041F2140286
:1025D0008B5241F216028B5241F218028B5041F29B
:1025E0001C028B5241F21E028B52704710B4DB006A
:1025F000DCB29DF8083003F00703234343EAC2230B
:102600009DF80420120202F4E06213439BB2803171
:1026100000EB4111CB805DF8044B7047036813F069
:10262000800F13D010B400EB411341F208041B5982
:10263000002B11DB00EB41131B5913F0804F0BD122
:1026400022F0404200EB4110025112E000EB411039
:1026500041F20803C250704700EB411041F20801FB
:10266000435823F47F7323F00303C2F309021A4390
:1026700042505DF8044B704710B400EB411441F236
:102680001E03E35A13F4004F14D100EB411141F241
:102690001E000B5AC2F30E0203F4004313430B5205
:1026A00041F216000B5A03F400431A430A525DF834
:1026B000044B704741F21E00235AC2F3080203F490
:1026C0007E431343235241F21600235A03F47E4300
:1026D0001A432252EBE708B50020FFF71BFE08BDA6
:1026E00008B50120FFF716FE08BD08B50220FFF768
:1026F00011FE08BD08B50320FFF70CFE08BD08B5A4
:102700000420FFF707FE08BD08B50520FFF702FE0D
:1027100008BD08B50620FFF7FDFD08BD08B5072078
:10272000FFF7F8FD08BD08B50820FFF7F3FD08BD69
:1027300008B50920FFF7EEFD08BD08B50A20FFF730
:10274000E9FD08BD08B50B20FFF7E4FD08BD08B59D
:102750000C20FFF7DFFD08BD08B50D20FFF7DAFDFF
:1027600008BD08B50E20FFF7D5FD08BD08B50F2040
:10277000FFF7D0FD08BD38B50020FFF709FFC56A97
:10278000002404E06D080134E4B2102C06D015F0EA
:10279000010FF7D02046FFF7D3FDF3E738BD000067
:1027A0002DE9F04186B00C4616469846234B53F867
:1027B0002050234B53F82070384600F09DFD844292
:1027C00005D34FF44073184606B0BDE8F08105EB21
:1027D000C4056B790BB10223F5E71F2C04D804F074
:1027E0001F02012393403B6302236B719DF8343039
:1027F000AB71F37AEB717368049333788DF80C3016
:10280000337A8DF81430737A8DF81530B37A8DF8E9
:102810001630F37A7BB11C2302930C9B0093434642
:1028200002AA2146384600F0C7FF03460028CAD056
:1028300000226A71C7E70C230293EEE73C000020F8
:10284000E49600002DE9F8430D46174698461B4BC9
:1028500053F820401A4B53F82060204600F04CFDFE
:10286000854204D34FF440731846BDE8F8832368CB
:1028700013F0005F09D0636BC3F303635B0007339E
:102880009D4202D84FF44073EEE706EBC50999F874
:1028900005300BB10223E7E7012289F8052046F84D
:1028A000357089F806802946204600F09FFE0346D1
:1028B0000028D9D0002289F80520D5E7E496000049
:1028C0003C0000202DE9F04383B005460F469046BA
:1028D0003D4B53F820603D4B53F8204094F81131A4
:1028E000012B06D0637913B30223184603B0BDE869
:1028F000F0836379DBB2032BF4D1B36A326B1340FC
:1029000013F0200F02D100236371EBE7304600F093
:1029100098FE01233363D6F88C30B36A326B1340D0
:1029200013F0200FF7D1304600F07EFEEBE733685E
:1029300013F0005F01D10123D7E74FF0010984F8BC
:10294000059084F8068027604A460621304600F04C
:102950004DFE4A460721304600F048FE4A46052112
:10296000304600F043FE94F811314B4501D000236E
:10297000BBE72A46164994F81001FFF7BBFC18B1D3
:10298000002363714B46B0E7236894F810011022CE
:1029900001920221009106F18002FFF7EFFC18B1CD
:1029A000002363710123A0E7012194F81001FFF7D0
:1029B000D3FD94F81001FFF7B7FD0346002894D02B
:1029C00000236371012390E7E49600003C0000209F
:1029D000752A000070B50646244B53F8204094F841
:1029E000113113B36379DBB2032B30D0256894F82F
:1029F0001001FFF7A5FD2B6813F4001F02D16A68D0
:102A0000920C6A60C3F3034385F84830AB681BBA85
:102A1000AB60EB681BBAEB60D4F80051BDB1234644
:102A2000002208213046A84711E0114B53F82050EE
:102A300000220521284600F0D9FD00220621284663
:102A400000F0D4FD00220721284600F0CFFD00232E
:102A50002360A37933B96379DBB2032B1CBF002356
:102A6000637170BD201D03F0C5FBF4E73C0000203E
:102A7000E496000038B50446012903D0E0B2FFF720
:102A8000A9FF38BD064B53F8203003225A71D3F802
:102A90000051002DF2D000220921C0B2A847EDE775
:102AA0003C00002038B50C460A4B53F82050002259
:102AB000094B53F8200000F099FDE1006C18A37950
:102AC00013B90023637138BD081D284403F092FB3D
:102AD000F7E700BF3C000020E496000038B50D4643
:102AE000094B53F82040204600F0ABFD3DB1236870
:102AF00043F480332360204600F096FD38BD236800
:102B000023F480332360F6E7E4960000F8B50E4620
:102B100015461F46414B53F82040204600F091FDDA
:102B2000236803F07F039D4201D81F2D05D920465D
:102B300000F07AFD4FF44070F8BD236813F0005F99
:102B400015D15EB9364B03EA874705F5087544F899
:102B50002570204600F068FD0020F8BD012EF8D158
:102B600027F0604705F5087544F82570F1E7636BB9
:102B7000DB0D03F01E0307331F2B28BF1F239D42CD
:102B800012D82368C3F30123022B2BD0032B39D097
:102B9000012B1BD03A460021304600F07DFB05F5A5
:102BA000087544F82500D4E73EB91D4B03EA874772
:102BB00005F5087544F82570CBE7012EC9D127F03B
:102BC000604705F5087544F82570C2E73A460121CB
:102BD000304600F061FB40EA104005F5087544F806
:102BE0002500B6E73A460221304600F055FB030CBB
:102BF00043EA1063034343EA102305F5087544F8DC
:102C00002530A6E73A460321304600F045FB05F59E
:102C100008754FF0FF3344F825309AE7E49600003A
:102C20000000FC1F2DE9F047814688461746A54B5A
:102C300053F820402368002B05DB204600F001FDFF
:102C4000204600F07CFB62687B7A5B0303F4005350
:102C500022F4005213436360204600F05BFB2046E1
:102C600000F0EFFC204600F077FB236823F40063BC
:102C70003A7A002A40F010812360226D22F000424F
:102C8000002311E1636B23F48053002A14BF4FF437
:102C90008052002213436363BB79022B03D0236865
:102CA00043F4003323607B79002B40F0B48097F825
:102CB0003430012B00F0B88097F834301BB923680A
:102CC00023F400432360F979204600F03FFD396882
:102CD000204600F0E5FE0246002840F0EF80236821
:102CE00013F4006F00F0A980FB6838697E69BD6944
:102CF000FA69216D01F000412165216D9B029BB2B3
:102D0000400100F47870034306F01F0633436E4819
:102D100000EA45552B43120402F4F81213430B4307
:102D200023653B6A786ABE6AFD6A3A6BD4F804CCC4
:102D300066490CEA0101C4F8041CD4F8041C9B0287
:102D400003F4F8434001C0B2034306F007063343DF
:102D50005F4800EA05552B43120402F4E0221343B6
:102D60000B43C4F8043CB979204600F0C0FCBB79A1
:102D7000032B02D0204600F057FC564B13F90900F4
:102D800010F1800F01D001F0C7FF534B13F9090078
:102D900001F0C2FF514B13F9090001F0BDFF504B88
:102DA00013F9090010F1800F01D001F0B5FF4C4B71
:102DB0004B4493F9020010F1800F01D001F0ACFFF9
:102DC00008F1040A544600252E463146204603F0F9
:102DD00024FA024600284FD1A67044F8046C08EB90
:102DE000C5035E7101350834202DEED197F83430DB
:102DF00088F8113197F8353088F810310023C8F879
:102E00000031C8F80431C8F80831C8F80C31354B26
:102E100043F8298052E03979204600F0D1FA024681
:102E200000283FF444AF49E0236813F0005F2FD03F
:102E3000236843F4004323603EE7FB6838697D69FB
:102E4000BE69FA69616821F007010904090C616033
:102E5000616803F0070343EA06632D0405F4E025E7
:102E60002B43C00400F460100343920502F44002B7
:102E700013430B43636076E765B10024504603F0CB
:102E8000D6F901340AF1080AAC42F7D1012215E063
:102E9000012213E0012211E043F400632360226D5C
:102EA00022F000424FF000431343236523683A7A2F
:102EB000C3F3C0239A423FF4E5AE01221046BDE8B9
:102EC000F08700BFE49600000000E07F188308C090
:102ED0000000F03FF8960000F0960000EC9600002D
:102EE000F49600003C00002010B586B00D4C54F85C
:102EF00020005468049414788DF80C40947A8DF86E
:102F00001640147A8DF81440527A8DF8152006AACE
:102F1000082442F8104D0024009400F04DFC06B047
:102F200010BD00BFE496000070B582B00E460A4C9A
:102F300054F8205000240194069C0094FFF730FCC4
:102F4000034610B1184602B070BD01223146284632
:102F500000F04CFB0346F5E7E496000070B584B042
:102F60000D461E46164C54F82040506802901078CA
:102F70008DF80400127A8DF80C2004AA0F2042F874
:102F8000100D204600F0D8FC034610B1184604B0DE
:102F900070BD04AA002342F8103D3346294620465E
:102FA00000F0CAFC03460028F0D104AA042342F82A
:102FB000103D33462946204600F0BEFC0346E5E7B7
:102FC000E496000070B50D461646074B53F82040B6
:102FD000204600F036FB32462946204600F01AFA19
:102FE000204600F021FB70BDE496000008B50023E8
:102FF000FFF728FC08BD08B50022FFF763FC08BDF9
:1030000010B5074B53F82040064B53F82020D2F858
:1030100008310BB10A219847204600F033FB10BD60
:10302000E49600003C000020F8B5184B53F820400F
:10303000236813F4804F28D00546154B53F82060C1
:10304000D4F8083B13F4003F0CD0D4F8083B43F409
:103050000033C4F8083BD6F800711FB13346002294
:103060000521B847D4F8083B13F4803F0DD0D4F8BD
:10307000083B43F48033C4F8083BD6F8004124B140
:103080003346002206212846A047F8BDE4960000FA
:103090003C0000202DE9F04194B00546694B53F8FF
:1030A0002040A36A226B134003F00103002663B99A
:1030B0000136202E00F0B080A36A226B134006F088
:1030C0001F02D34003F00103F1E7002B00F0A480BE
:1030D0005D4B53F82570236813F0005F01D0072E75
:1030E0000FD907EBC6035B79DBB2012B41D007EBAD
:1030F000C60898F80530DBB2022B5DD014B0BDE8ED
:10310000F081052E10D0062E26D0072EEFD1802379
:103110002363D7F80081B8F1000FE8D03B460022C6
:1031200003212846C047E2E77B79DBB2012BDED1E1
:103130003968204600F0B0FA2846FFF74BFC202300
:103140002363D7F80081B8F1000FD0D03B460022AE
:1031500001212846C047CAE740232363D7F80081EE
:10316000B8F1000FC3D03B46002202212846C047D9
:10317000BDE73146204600F08EFC57F83620314638
:10318000204600F03DFC0028B1D1A3683146284616
:10319000FFF788FC1F2E04D806F01F02012393407E
:1031A0002363D7F80081B8F1000FA0D03B46324628
:1031B00000212846C0479AE731462846FFF772FCAF
:1031C00098F8073083B91F2E04D806F01F02012398
:1031D00093402363D7F80041002C8FD03B46324602
:1031E00004212846A04789E73146204600F053FCD9
:1031F00001AA3146204600F003FCA3689DF8073081
:1032000003F00F03042BE5D11F2EE3D806F01F02B5
:10321000012393402363DDE765B9D4F8083BD4F874
:10322000082B5B0C43EA124313F0010F02D000207D
:10323000FFF7FAFEE369002B3FF460AF2846FFF783
:10324000DFFE5BE7E49600003C000020034B53F8F0
:103250002030C3F80011C3F8042170473C0000205F
:10326000082817D90938062813D8DFE800F0040623
:10327000080A0C0E10000C20704710207047142014
:10328000704718207047202070473020704740203A
:103290007047002070470000012914D021B1022995
:1032A00020D000231846704702F0404330B1012877
:1032B000F8D1520022F040421343F3E70C4901EAEF
:1032C000C2421343EEE702F0404330B10128E9D196
:1032D000084901EA02421343E4E7054901EAC24210
:1032E0001343DFE7012801D90023DBE71306D9E701
:1032F0000000F83F0000FF3F054B984206D003F561
:10330000805398420CBF1020002070472020704747
:1033100000400240036813F4801F0FD0036823F0BD
:1033200000430360036823F080430360036823F0D5
:1033300080530360036813F0006FFBD1704703688C
:10334000002B07DB036843F000430360036813F4BA
:10335000801FFBD07047000070B50446036843F03F
:1033600000730360236813F0007FFBD1236843F4EC
:10337000805323602046FFF7BFFF04F180018600E1
:1033800007D00B4601EB8601002543F8045B8B4216
:10339000FBD104F5086230B113463244002143F8F2
:1033A000041B9A42FBD14FF0FF3323616361A36199
:1033B0000022A2622363014B236270BD06003B0022
:1033C00038B504460D46FFF797FF0146236803F41E
:1033D0000063002B14BF012000201AD1236843F0A2
:1033E00000532360626B2B0603F0706322F070625F
:1033F000134363634FF0FF33A36489B249B10023E1
:103400006FF0604503F5087244F8225001338B4297
:10341000F8D138BD2DE9F04100F1E003446BC4F36D
:103420000364032900F2DC80DFE811F004002E00C1
:103430007E00D600016821F4407101600134E4008F
:1034400000F0CE80114602EBC402664E08E04C68E4
:1034500006EAC4442C441C60083104338A4211D06B
:10346000087800280CBF00254FF000454878002858
:10347000EDD04868400020F0404045F080442044B2
:103480001860E9E7BDE8F081016821F4407141F47A
:10349000807101600134E40000F0A280154602EB67
:1034A0000412504F504E43F6F87411E0696807EA71
:1034B000C1414144196024E01868DEF80C1004EAA8
:1034C000C10161440143196010350433954229D08C
:1034D000AE46297800290CBF4FF000084FF0004895
:1034E000297A00290CBF4FF0000C4FF4004C69788A
:1034F0000029DBD0686806EA400048F080410144BA
:1035000019609EF809100029D6D0D3F80080DEF8A3
:103510000C00C0F3CD304CF48041014441EA080175
:103520001960D1E7BDE8F081016821F4407141F4F0
:10353000007101600134E40052D0104602EB4412E5
:1035400020E01C684568ED0844EA05641C6023E03F
:103550001D68CC68640304F47F042C431C6025E0E0
:103560001D684C69640104F47F442C431C6027E00F
:103570001C68C969C1F3C7012143196020300433B5
:10358000904227D001464478002CDAD01C68456868
:103590006D0D44EA05641C604C7A002CD8D01D687F
:1035A000CC68640904F47F042C431C604C7C002C20
:1035B000D6D01D684C69640B04F47F442C431C6016
:1035C0004C7E002CD4D01C68C969C1F347512143FB
:1035D0001960D3E7BDE8F081036843F440730360EA
:1035E000BDE8F0810000F83F0000FF3F036803F0F2
:1035F0007F038B4207D24FF440707047836A1943B0
:103600008162002070471F290CD801F01F0101239F
:1036100003FA01F1002AF1D1836A23EA01018162F0
:103620000020704700207047036823F08053036038
:10363000036823F080430360036813F0807FFBD1AD
:103640007047036843F080430360036843F080538E
:1036500003600368002B0EDB0122036813F0807FF8
:10366000FBD03AB9036843F000430360036813F4E6
:10367000801FFBD07047036823F0004303600022E3
:10368000EBE70000026A034B134013B1014B0362E6
:10369000036A704706003B00F8B507460E4600F186
:1036A000880401F10805D0F88000C0F30340FFF75B
:1036B000D7FD86F84800D7F88030336013F4001F38
:1036C00010D0D7F8843073600646002348B19908BB
:1036D00054F8212012BA45F821200433B342F6D31E
:1036E000F8BDF8BDD7F884309B0C7360ECE708B5E3
:1036F00004292AD8DFE801F00B181D030600FFF7A4
:10370000A0FF08BD036843F00043036008BD0368E1
:1037100023F400030360436823F008034360436815
:1037200023F48053436008BD436843F008034360BB
:1037300008BD436843F480534360436823F00803A3
:103740004360036823F40033036008BD036813F487
:10375000006F07D0D0F8003C23F4403343EA014126
:10376000C0F8001C7047036813F4006F09D0D0F84C
:10377000000CC0F301400330012303FA00F0C0B293
:1037800070470820FBE738B504460D46FFF7EBFF0E
:103790000830C0B24FF40073B3FBF0F3DBB2B5FBFB
:1037A000F3F203FB12538008D20100FB0320203008
:1037B00004EB800038BD00002DE9F8430746894638
:1037C00014469846089DFFF7DEFF3B6803F07F0331
:1037D000994500F2A38006463B6813F0005F0FD0C6
:1037E0007B6BC3F303635B000733994508D84FF441
:1037F0004070BDE8F8837B6B4FF44070BDE8F88300
:103800003B6813F4006F07D0A37B2BB1D7F8003CC3
:1038100043F00043C7F8003CD4F808905FFA89F3FE
:10382000402B9ABF424AD05CFF20074665B3FFF7A2
:1038300017FD39F003030DD0002399088A000832E0
:1038400055F8211009BAB1500433A26822F00302DE
:103850009A42F2D806F10801A26893420AD21D44A6
:1038600083F0030215F801CB01F802C00133A2680E
:103870009A42F5D80546824206D282F00303607B65
:10388000C8540132AA42F8D100233360736023790F
:10389000012B2FD0002322796AB9736823F0FF53DC
:1038A00023F4E01373607268224B03EA884848EA05
:1038B0000202726000233F0407F470273B43226832
:1038C0000F2A28D01C2A08BF43F4801323F070630A
:1038D000217BD9B1120602F0706242F0004213431C
:1038E000A27B0AB143F08043326813433360002067
:1038F000BDE8F883736803F060437360726828F072
:103900006043134373604FF40013C4E7120602F0E0
:1039100070621343E4E70020BDE8F8833B6813F0CE
:10392000005F7FF468AF4FF44070BDE8F88300BFDC
:10393000FC9600000000FC1FF8B504460E46154634
:103940001F46FFF720FF236803F07F039E423FD806
:10395000236813F0005F46D10023036043602B7996
:10396000012B21D02B797BB9036823F4C0030360BA
:10397000436823F0FF5323F4E013436042681F4B76
:1039800003EA8743134343602B680F2B1ED0036861
:1039900023F07063036002682B681B0603F07063FA
:1039A000134303600020F8BD036843F40013036071
:1039B000036823F480030360436803F060434360BB
:1039C000426827F0604313434360CBE70020F8BD13
:1039D000236813F0005F03D0636B4FF44070F8BDB1
:1039E0004FF44070F8BD636BC3F303635B000733B0
:1039F0009E42B1D84FF44070F8BD00BF0000FC1FDC
:103A0000F8B507460E461546FFF7BDFE04460068AA
:103A1000C0F30340FFF724FC85F848003B6813F02F
:103A2000005F2FD07B6BC3F303635B0007339E42C1
:103A300028D84FF44070F8BD63686B6030F003061F
:103A400008BF00230CD0002303F0FC0202F10801A0
:103A5000615809BA2A4491600433DBB2B342F3D30C
:103A600083420DD2D91D294483F003020832A25C9F
:103A700001F8012F0133DBB29842F5D10020F8BDE7
:103A80000020F8BD23682B6013F4001FD4D16368B5
:103A90009B0C6B60D2E708B5FFF775FE036808BDA5
:103AA0002DE9F84306460F46FFF75DFE04467D1EEE
:103AB00029463046FFF767FE2044083006F520739C
:103AC000984203D94FF44070BDE8F883A0463046D1
:103AD000FFF712FC874206D94FF44070BDE8F88327
:103AE0000020BDE8F883336823F07F0305F07F05ED
:103AF0001D433560316811F000511CD1002FEFD00B
:103B000000252C4608F108093046FFF73CFE04600A
:103B10004460B8F1000F06D000F10803484403F8F0
:103B2000014B9842FBD10135EDB22946AF42EBD8AB
:103B30000020BDE8F8830020BDE8F88308B5002028
:103B4000FFF7A8FA08BD08B50020FFF759FA08BD2D
:103B500008B50020FFF768FA08BD08B50020FFF798
:103B600099FA08BD08B50020FFF794FA08BD08B51A
:103B70000120FFF78FFA08BD08B50120FFF740FAD2
:103B800008BD08B50120FFF785FA08BD4B782BB9B1
:103B90008B78002B40F0A480CB7800E0012303F069
:103BA00001030A78002A00F0C980002B40F09680BB
:103BB000644B53F82030002A00F09B80D3F88C200F
:103BC00042F48062C3F88C20D3F88C2042F4006267
:103BD000C3F88C20D3F88C2042F48052C3F88C2098
:103BE000D3F88C2042F40072C3F88C20D3F88C00F8
:103BF000CA7A120202F4807220F480700243C3F881
:103C00008C20D3F88C2042F08002C3F88C204A78B4
:103C100022B99A6D22F010029A6503E09A6D42F083
:103C200010029A658A78002A4ED09A6D42F02002DE
:103C30009A65CA78002A4CD09A6D42F040029A6583
:103C4000986D0A79520002F0020220F0020002434D
:103C50009A659A6D22F00102487902439A659A6D3D
:103C6000087A003018BF012022F0080242EAC002A0
:103C70009A65D3F88C008A79120102F0100220F0C4
:103C800010000243C3F88C20D3F88C00CA7952018B
:103C900002F0200220F020000243C3F88C20D3F869
:103CA0008C004A7A920002F0040220F004000243E1
:103CB000C3F88C20D3F88C2022F00102897A0A43C1
:103CC000C3F88C20002070479A6D22F020029A657C
:103CD000AFE79A6D22F040029A65B1E70120704784
:103CE0000A78002A3FF464AF01207047154B53F85F
:103CF0002030D3F88C2042F48022C3F88C20D3F8F3
:103D00008C2042F40022C3F88C20D3F88C2042F49B
:103D10008012C3F88C20D3F88C2042F40032C3F810
:103D20008C20D3F88C20C87A003018BF012022F4F0
:103D3000803242EA0042C3F88C2062E7002BD5D1E2
:103D4000012070474097000030B4214B53F8200009
:103D5000CAB211F4007F04D0036823F40073036037
:103D6000036811F4807F10D0436F23F08103436711
:103D7000436F23F082034367436F23F08403436759
:103D8000436F23F088034367436F11F4806F04D0BF
:103D9000036823F080030360036811F4006F03D00D
:103DA000C36E23F08003C3660023012503E052089D
:103DB0000133082B0AD012F0010FF8D0016D05FA7B
:103DC00003F421EA04010165016DF0E730BC70479E
:103DD0004097000070B582B005461B4B53F8203069
:103DE00000220192186800F0070001248440174B5C
:103DF00053F825301B78022B1BD0032B07D0012B47
:103E00001CD0E4B20198B0FBF4F002B070BD104BCE
:103E100003EB45035E7801A93046FEF767FA019B84
:103E200013B90B4B13F8156001A93046FEF75EFA83
:103E3000E7E701A91A20FEF759FAE2E701A90020F5
:103E4000FEF754FADDE700BF409700004400002071
:103E500050970000F8B5334B53F8203013B10127C9
:103E60003846F8BD304B53F820508B7B137000233D
:103E7000537053802B4B43F8202002F1080702F1C6
:103E8000180402F1580E02F1380C2646002327F8D8
:103E9000023B46F8043B4CF8043B0EF8013BA742BA
:103EA000F5D117460C460646284600F057F8617BC8
:103EB000284600F047F83046FFF78CFF7860237BF8
:103EC000023BDBB2022B1ED90027EA6E637C9B010A
:103ED00003F0400322F040021343EB66D5F8842040
:103EE000E37B9B01DBB222F0C0021343C5F88430B0
:103EF000237C73B92B6823F480732B600B4B98578A
:103F000000F016FFACE721463046FFF73FFE0746BC
:103F1000DBE72B6843F480732B60044B985700F069
:103F2000FBFE9DE7440000204097000078970000CA
:103F3000034B53F820305868B0FBF1F080B2704763
:103F400044000020436D43F001034365036823F000
:103F5000070301F007010B4303607047F0B4436FA0
:103F60000023436704224265026803604360836064
:103F7000C364026D03658365C36503664366836638
:103F8000C26EC36603678367C367C0F88030C0F83A
:103F90008430C0F88830C0F88C30C0F89030C0F859
:103FA0009430C0F89830C0F89C30124B984208D03A
:103FB00003F58053984204D0002319460D4D0E4F4F
:103FC0000AE00023C0F80032F6E7803400EB8404F6
:103FD00061600133082B0AD01C4600EBC302D6688F
:103FE000D1601161A842F0D0B842F2D1EDE7F0BC47
:103FF000704700BF0090034000A0034001290ED984
:10400000052999BF0239012306394FF4807303FA59
:1040100001F142B9C36E23EA0101C1667047102362
:1040200003FA01F1F5E7C36E1943C166704703292E
:1040300023D8DFE801F0020A121B836F23F00F037D
:1040400002F00F021A4382677047836F1201D2B2E7
:1040500023F0F0031A4382677047836F120202F461
:10406000706223F470631A4382677047836F120390
:1040700092B223F470431A4382677047F8B52B4B12
:1040800053F820305A78012A00D0F8BD284A52F857
:1040900020004A00D2B2456EC900042404FA01F19E
:1040A00029422ED000EBC2052E69B6B2511CC9B20E
:1040B00000EBC1010C69A4B2A6421DD98768101D8E
:1040C000A41B3C4423F81040E86820F08000E8601E
:1040D000E868C86820F08000C860C96803EB820106
:1040E0008C6B002CD1D0134493F85830002BCCD0DB
:1040F00089690020A047C8E7101DA41B23F81040C1
:10410000E2E7511C00EBC101496811F0800F04BFC8
:104110000132D2B200EBC2000469111D23F8114034
:10412000C16821F08001C160C168D7E74400002068
:10413000409700002DE9F04F83B0AF4B53F820902B
:10414000B9F1000F00F0D08099F80130002B40F059
:10415000CD80AA4B53F82080D8F8003023F0180304
:10416000C8F80030D8F84C301B0C1B04C8F84C3091
:10417000D8F808301B0C1B044A881343C8F80830D1
:10418000D8F8003023F02003C8F80030D8F86430A5
:1041900023F08003C8F86430D8F8643023F00103BA
:1041A000C8F864300B78002B00F014810F460190A2
:1041B0000025934B03EBC00B10E000222146404644
:1041C000FFF735FF7B6833445A783AB3012A57D05A
:1041D0000135EDB23B78AB4240F2FC802E017B68AA
:1041E0009A199C5D4FEA540A936809EB8402936123
:1041F0007B683344DB68936309EB0403012283F893
:104200005820032CDED87B6833449A79002AD4D016
:104210001A7921464046FFF70AFFD3E7D8F8643001
:104220004FEACA024FF0040A0AFA02FA23EA0A0322
:10423000C8F8643008EBC403DA6822F01002DA60D0
:10424000DA6822F02002DA60D8687A681644B27818
:10425000910001F0040120F004000143D960D96805
:10426000920002F0080221F008010A43DA60DA68DD
:1042700042F04002DA601BF9040000F04DFDA7E7B0
:10428000D978D8795D4B019A53F822305A6E4FEAAB
:10429000CA0A042606FA0AF616435E665E6E08220D
:1042A00002FA0AF232435A6698B103EBC402D068AC
:1042B00040F01000D060D06840F02000D0600329AA
:1042C00019D001292FD0042954D002296AD00126FF
:1042D00040E003EBC402D06820F01000D060D0684A
:1042E00040F02000D060EAE7012600E001263046D9
:1042F00003B0BDE8F08F03EBC402D16841F00401C4
:10430000D160D16821F00801D160621CD2B203EB08
:10431000C202D16821F00401D160D16841F00801E6
:10432000D160002616E003EBC402D16841F004011D
:10433000D160D16821F00801D160621CD2B203EBD8
:10434000C202D16841F00401D160D16821F00801B6
:10435000D1600026621CD2B203EBC203DA6842F0DD
:104360004002DA601BF9040000F0D6FC002E3FF496
:104370002FAFBCE703EBC402D16821F00401D16088
:10438000D16841F00801D160621CD2B203EBC202D5
:10439000D16841F00401D160D16821F00801D160F9
:1043A0000026D7E703EBC402D16821F00401D160F5
:1043B000D16841F00801D160621CD2B203EBC202A5
:1043C000D16821F00401D160D16841F00801D160C9
:1043D0000026BFE7012389F80130D8F8002099F8BA
:1043E0000030DB0003F0180322F018021343C8F872
:1043F000003000267BE700BF44000020409700000B
:1044000058970000044B53F820301BB1043133F8A7
:1044100011007047002070474400002008B50021BB
:104420000846FFF72BFE08BD08B501210020FFF765
:1044300025FE08BD08B502210020FFF71FFE08BDBC
:1044400008B503210020FFF719FE08BD08B50021BB
:104450000120FFF713FE08BD08B501210846FFF74C
:104460000DFE08BD08B502210120FFF707FE08BDBB
:1044700008B503210120FFF701FE08BD08B50021A2
:104480000220FFF7FBFD08BD08B501210220FFF760
:10449000F5FD08BD08B502210846FFF7EFFD08BD90
:1044A00008B503210220FFF7E9FD08BD08B500218A
:1044B0000320FFF7E3FD08BD08B501210320FFF746
:1044C000DDFD08BD08B502210320FFF7D7FD08BDBB
:1044D00008B503210846FFF7D1FD08BD30B4264BCF
:1044E00053F82050002D42D06B78002B41D1234B44
:1044F00053F82040236823F018032360236823F433
:10450000007323602368E36C1B0C1B044A8813436D
:10451000E364A3681B0C1B048A881343A360D4F8CC
:10452000803023F00103C4F88030002204EBC20382
:10453000D86820F00400D860D86820F00800D8605F
:104540000132082AF2D10B78062B06D0072B09D0AE
:104550000B786B70002030BC7047236823F0200379
:104560002360F5E7236843F020032360F0E7012090
:10457000F1E70120EFE700BF440000204097000072
:10458000084B53F820100A68074B53F820301B786B
:10459000DB0003F0180322F0180213430B60002025
:1045A000704700BF40970000440000202DE9F04113
:1045B000BDF818703C4C54F820503C4C54F8206026
:1045C000AC68A4B27078042819D0032803BF013462
:1045D000A4B200200120CAB9B3F5004F58D8B7F5EE
:1045E000004F58D804FB03F2C2F3CF3204FB07F7A5
:1045F000C7F3CF37B3F5004F05D013460AE0640088
:10460000A4B20020E7E7531C9BB203E09C4245D3D1
:10461000BC4246D3002845D14A08D5F864804FEA09
:10462000C20E4FF0010C0CFA0EFC1CEA080F25D04C
:10463000D5F864C0802101FA0EFE1EEA0C0F07D0E7
:10464000296811F0180F06D105EB02110B6102E089
:1046500005EB02110B6153000133DBB2013305EBB3
:10466000C3039F60AA6D9DF81C30DB01DBB222F012
:1046700080021343AB657480BDE8F0812A6812F0B4
:10468000200F18BF5B08013105EBC1018B60E9E722
:104690000120BDE8F0810120BDE8F0810120BDE8E6
:1046A000F0810120BDE8F081409700004400002027
:1046B0002DE9F04F85B0A44B53F820300393002B25
:1046C00000F0E9825B781BB1012005B0BDE8F08FF6
:1046D0000D4602909D4B53F82040236823F01803A9
:1046E0002360236823F4007323602368636D43F021
:1046F000040363658B78039A53700B78002B00F0EA
:10470000E8804FF000084FF001094FF0020A4FF027
:10471000100B82E0216F09FA06F20A4322678EE04D
:1047200004EBC602D16841F00401D160D16821F0E8
:104730000801D16094E0626ED9000BFA01F122EA1F
:10474000010262669BE0497931B9216F09FA02F2F0
:1047500021EA0202226712E0216F09FA02F20A43FB
:1047600022670CE0216F09FA02F20A43226706E091
:10477000626ED9000AFA01F122EA01026266626EF3
:10478000DB000421994022EA01026266626E09FAA6
:1047900003F122EA01026266626E8021994022EAF8
:1047A0000102626604EBC602D16841F01001D160DB
:1047B000D16841F02001D1606A69D278002A00F006
:1047C0008180616E40229A400A436266616E2022B7
:1047D00002FA03F30B436366EB683B441A793146F4
:1047E0002046FFF70BFC226806F1100309FA03F3D9
:1047F00013432360EB681F44BB793BB12268731CF1
:10480000DBB2103309FA03F31343236008F1010804
:104810005FFA88F82B7843455BD908EB880257008C
:10482000EB68D91913F8126073084A79002A7FF4EB
:1048300071AF226F09FA06F122EA01022267EA68E3
:104840003A445179527891423FF46AAF04EBC60280
:10485000D16821F00401D160D16841F00801D16034
:10486000EA683A449179002982D0127A002A3FF40A
:1048700062AF616EDA000BFA02F20A436266721CE2
:10488000D2B204EBC201C86820F00400C860C86856
:1048900040F00800C860606ED9000AFA01F10143D7
:1048A0006166E9683944C87901283FF44CAF497919
:1048B00000293FF457AF216F09FA02F221EA020200
:1048C00022675CE7626E4021994022EA010262663B
:1048D0007CE71E4B029A53F822606B78002B00F0A5
:1048E0000E814FF000094FF0010A4FF0040B82E0F7
:1048F000306F0AFA01F2024332678CE006EBC10224
:10490000D06840F00400D060D06820F00800D0608B
:1049100092E0D6F870C00AFA02F040EA0C00306764
:10492000B4E0807A40B9706E4FF0020C0CFA03FCD0
:1049300020EA0C00706613E0D6F864C002209840AC
:1049400040EA0C0070660BE0440000204097000035
:10495000706E4FF0020C0CFA03FC20EA0C0070663B
:10496000306810320AFA02F2024332606A69D27881
:10497000002A00F0AE80706E40229A4002437266B8
:10498000706E20229A4002437266706E0AFA03F239
:10499000024372662A693A44D279002A00F0A08064
:1049A000706E80229A40024372662A693A44927974
:1049B000002A00F09C80706E102202FA03F3034379
:1049C000736601F0FE082B693B44DA7A41463046B3
:1049D000FFF714FB2B691F4408F101013A7BC9B2B0
:1049E0003046FFF70BFB09F101095FFA89F96B7893
:1049F0004B4540F284804FEA09172B69DA19D95DDB
:104A00004B08527B002A7FF473AF326F0AFA01F031
:104A100022EA000232672A693A44507B127A9042B5
:104A20003FF46CAF06EBC102D06820F00400D06008
:104A3000D06840F00800D060726EDB000BFA03F023
:104A400022EA0002726606EBC102D06840F0100054
:104A5000D060D06840F02000D060306801F11002D2
:104A60000AFA02F20243326028693844427A002A84
:104A70003FF47CAF4A1CD2B2807B00287FF449AF60
:104A8000306F0AFA02FC20EA0C00306706EBC20025
:104A9000D0F80CC02CF0040CC0F80CC0D0F80CC03E
:104AA0004CF0080CC0F80CC02869384490F80EE0AF
:104AB00090F80DC0E6453FF434AF807A00287FF4CB
:104AC00047AFD6F864C00220984040EA0C007066F8
:104AD00046E7726E4020984022EA000272664FE775
:104AE000726E8020984022EA000272665DE7726E64
:104AF000102000FA03F322EA0303736661E7636D93
:104B000043F0020363656B69DA78002A65D01B788D
:104B1000C3B1E36F43F40043E367E26F6B699B78D3
:104B20001B0203F4706322F470621343E367029B79
:104B3000042B34BF4FF0040C4FF0020C042600236A
:104B400001271DE0E36F23F40043E367E5E7E26F2D
:104B500007FA06FE22EA0E02E2676A6901EB4101EA
:104B600011448A79012AD4F888200CBF22EA000077
:104B70001043C4F8880001330136DAB294451BD9DA
:104B800019466A6903EB430002441279002AF2D005
:104B9000E26F07FA03F00243E2676A6903EB430E30
:104BA00072445279002AD2D0D4F87CE007FA06F297
:104BB00042EA0E02E267D0E76B695B781BB1636D76
:104BC00043F080036365626D6B69DB785B0103F022
:104BD000600322F06002134363652368AA78042A05
:104BE00014BF0022012223F0200343EA4213236072
:104BF000A9680298FFF79CF9039B5880E36C1B0C93
:104C00001B04E364AB78042B3CD0A268039B5B8855
:104C1000013B9BB2120C12041343A3602B78002BB0
:104C20003BD00026374606EB8601EA6802EB4103DB
:104C30005B8812F81110019700973A460298FFF727
:104C4000B5FC0136F6B22B78B342ECD86B78A3B141
:104C500000263746DDF8088031012869421853885C
:104C6000415C0197928800923A464046FFF79EFCCD
:104C70000136F6B26B78B342EED888B10023039ABE
:104C8000537022E5A368039A52881B0C1B0443EA65
:104C90005203A360C2E7012017E56B78002BD7D140
:104CA000A26EEB7803F03F0322F03F021343A366AA
:104CB000A26E2B799B01DBB222F0C0021343A366E4
:104CC000636D43F001036365636D43F0080363653F
:104CD0002268039B1B78DB0003F0180322F0180204
:104CE000134323600020F0E472B110B4144600F1C5
:104CF0001003084A52F8233023601030054B43F864
:104D000020105DF8044B70471030024B43F8201020
:104D1000704700BF00C0FF1F420900F01F000123C1
:104D200003FA00F0014B43F82200704700E100E075
:104D3000430900F01F00012202FA00F02033024A6A
:104D400042F82300704700BF00E100E0054B1B68FC
:104D5000002B04DD013B034A1360002B00DD70478C
:104D600062B6FCE75400002072B6024A13680133B1
:104D70001360704754000020022303610023036185
:104D80007047436913F0807F01D0022070470369A8
:104D900023F00103036100207047436A23F00103FD
:104DA0001943416200207047036943EA422242EA04
:104DB000012202617047B1F57C5F07D0426901238F
:104DC00003FA01F11143416100207047436943F444
:104DD0007C534361F8E710B4436A083101248C40E6
:104DE00023EA04038A401A43426200205DF8044B20
:104DF000704710B4446A24F0706483F00103920693
:104E000042EAC36343EA01632343436200205DF83F
:104E1000044B7047036C23F0FF03C9B219430164CC
:104E2000002070472DE9F04F83B096460193DFF8DC
:104E3000F8A04FF00009CDF80090CB464FF0FF35B9
:104E40004DE0A1EB03081646E04538BF1D46331B75
:104E5000012B15D9A219C2F34702931C07FB03F3D8
:104E6000BEFBF3F38D4234BFA1EB050CA5EB010CA7
:104E70008B42E6D35C1A644538BF1D461446E6E70C
:104E8000A31C07FB03F3BEFBF3F3B21C07FB02F703
:104E9000BEFBF7F799428CBFCA1A5A1AB9428CBFA7
:104EA000A1EB070CA7EB010C944528BF26469445BF
:104EB00028BF1F468D4234BF4B1B6B1A8F4234BF35
:104EC000CA1B7A1A9A4203D8CDF80090B3463D46E1
:104ED0008D420AD009F10109B9F1080F05D05AF83D
:104EE000047F4FF480760024B4E74FEA9B02036C02
:104EF00023F07F4343EA02630364036C23F47F03DC
:104F000043EA02430364036C23F47F4343EA02232E
:104F100003645946FFF77EFF019B1A46009B13600E
:104F2000284603B0BDE8F08F78970000CA680B6888
:104F3000013B43EAC2634A7C43EAC2730A7C43EA08
:104F40008273CA7A43EA02638A7A43EAC2534A7A8C
:104F500043EA82530A7A43EA4253CA7943EA025344
:104F60008A7943EAC2434A7943EA82430A7943EAA7
:104F700002430366704708B5002000F007FB08BD38
:104F800008B5012000F002FB08BD00002DE9F04744
:104F900084B0774C54F82040656915F0807F03D0C9
:104FA000022004B0BDE8F087724D55F82060778884
:104FB000B3FBF7F507FB1535ADB20DB10120F0E7F6
:104FC0001D46174688468146012211462046FFF7B6
:104FD000EBFE012211462046FFF7E6FE33791BB1B6
:104FE000236E43F480132366002386F826304FF4A3
:104FF0007C512046FFF7DFFEA36943F40063A36101
:10500000002F00F0A080A36943F48053A36175834F
:10501000236E23F400232366A36D23F44033A3659A
:10502000A36D23F0030343F00203A36596F8243035
:10503000012B54D07388022B6BD0042B6CD0012B26
:105040000CBF4FF0000A4FF0020AB8F1000F66D013
:1050500096F823000121039125FA0AF3029301FA3D
:105060000AF30193CDF800A004F164034246FDF772
:1050700029FA002F6ED096F822004FF00108CDF8E3
:105080000C8025FA0AF5029508FA0AF30193CDF887
:1050900000A03B4604F174020021FDF713FA4A46D2
:1050A000354996F82200FDF725F996F82200FDF71C
:1050B0003BFA4A46314996F82300FDF71BF996F86A
:1050C0002300FDF731FA86F80C80E36943F0020310
:1050D000E361E36943F00103E361002061E7C6F89F
:1050E000108077610023B383F383358333791BB159
:1050F000338B01339BB23383012333731FB1A36915
:1051000043F00203A361A36943F00103A3610020FC
:1051100047E74FF0010A98E74FF0020A95E796F843
:1051200023000123039325FA0AF2029203FA0AF3F9
:105130000193CDF800A004F1640306F130020321CD
:10514000FDF7C0F995E700237383236E43F4002332
:10515000236661E74A46094996F82300FDF7CAF835
:1051600096F82300FDF7E0F901233373B1E700BFA0
:105170007CC7FF1F58000020B95400007554000080
:1051800038B51B4B53F820501A4B53F820400023DE
:105190002B7395F82430D3B9E36923F00203E3615C
:1051A000E36923F00103E36100F0A4FAA36923F4A7
:1051B0008063A3610A212046FFF7FDFD6B797BB96F
:1051C000AB6A1BB1EA6A00212846984738BDA3693B
:1051D00023F00203A361A36923F00103A361E3E7C2
:1051E00005F1250001F006F800236B71E8E700BF28
:1051F000580000207CC7FF1F2DE9F04186B00C4607
:105200009046404B53F820503F4B53F820603046B7
:10521000FFF7B7FD00286CD107462389A3F10802E8
:1052200092B240F6F8718A4268D82B80E268AA6090
:10523000A2792A71A27C85F82020E27C85F82420BE
:1052400000222A736A710733C3F3CF036B80032BE9
:105250004CD0042B04D9013B23F0030304336B80AF
:10526000237D85F82230637D85F82330A369AB6206
:10527000E369EB62627921793046FFF7ACFD05AB5B
:10528000E26821683046FFF7CDFD736A43F0020300
:105290007362336943F00103336188B3B8F1000FDF
:1052A00001D0C8F800002B88009300238DF804304B
:1052B0008DF805308DF806308DF80730A2798DF81D
:1052C00008208DF80930A37C8DF80A3023798DF8F9
:1052D0000B30059B0393237C8DF81030637C8DF895
:1052E000113069463046FFF721FE03E004236B804E
:1052F000B6E70127384606B0BDE8F0810127F9E797
:105300000127F7E7580000207CC7FF1FF8B50646C5
:105310000D4617461A4B53F820401A4B43F82010FD
:105320002046FFF729FD01212046FFF736FD012326
:10533000002211462046FFF75CFD15F1210F05D034
:105340006268D2B20123934085F8213000223946A9
:105350003046FFF751FF074608B13846F8BD002137
:10536000296305F1250000F058FF0746064B9857C2
:10537000FFF7D2FC236943F001032361EDE700BF8F
:105380007CC7FF1F5800002084C7FF1F2DE9F0478E
:10539000002B54D098462B4C54F82060746914F0BC
:1053A000807F03D002242046BDE8F08717460C46D4
:1053B0000546254B53F8209009F1250A0021504657
:1053C00000F0DEFE012389F8053043463A462146C7
:1053D0002846FFF7DBFD044690B90899504600F0D7
:1053E000CFFE0746032822D0284600F083F9B36990
:1053F00023F48063B3610A213046FFF7DCFCD2E777
:10540000B36923F00103B361B36923F00203B3610D
:10541000284600F06FF9B36923F48063B3610A2171
:105420003046FFF7C8FC002389F80530BBE70023AE
:1054300089F805302846FFF7A3FE3C46B3E7002471
:10544000B1E700BF7CC7FF1F5800002010B5084B14
:1054500053F82040FFF794FE012211462046FFF743
:10546000A3FC012211462046FFF79EFC002010BD40
:105470007CC7FF1F10B50E4B53F820400D4B53F85F
:10548000203001290DD022791AB11A6E22F480122F
:105490001A660022228362839A6942F480629A61CA
:1054A00010BDFFF7D3FF012384F8263010BD00BFE5
:1054B000580000207CC7FF1F012900D0704710B59D
:1054C000044B53F82040FFF7C1FF012384F8263036
:1054D00010BD00BF5800002070B50546294B53F899
:1054E0002060294B53F82040636913F4006F0BD000
:1054F00033694BB1FFF7AAFF0B212046FFF75BFC96
:10550000012386F8263070BD636913F4805F0CD0E8
:10551000736953B12846FFF799FF0C212046FFF726
:105520004AFC022386F8263070BD636913F0020F2F
:1055300002D0738B9BB2CBB9636913F0010F02D019
:10554000338B9BB2B3B9338B9BB273B9A36923F08E
:105550000103A361A36943F48063A361738B9BB2CE
:105560001BB9636913F4806F08D170BD284600F041
:105570007BF8E1E7284600F01DF8E4E72846FFF74E
:10558000FFFDF2E7580000207CC7FF1F012800D96B
:10559000704708B5064B53F820305B6A13F0010FD3
:1055A00002D100F0F9F808BDFFF796FF08BD00BF73
:1055B0007CC7FF1F2A4B53F820302A4A52F820009C
:1055C000C26D02F0070293F82110891A11F0FF0151
:1055D00045D0F0B504244FF0000C1FE0026E22F419
:1055E0008012026600221A83F0BD12F8015B1A6174
:1055F000B3F81CE017FA8EFE9EFBF6F206FB12E6ED
:10560000B6B29E8345661A8BD21B92B21A831A8B4E
:1056100092B21AB3013911F0FF011FD01A791AB1F1
:105620001A8B92B2012AD9D05E889A8B92B2B21AA2
:10563000042ADDBF9A8BB21A97B227461A695AB16B
:10564000012ED2D0022E03D052F8045B1A61CFE7AC
:1056500032F8025B1A61CBE76546D3E7F0BD7047CD
:10566000580000207CC7FF1FF0B4204B53F82010D7
:105670001F4B53F82070FE6DC6F30246002E32D049
:105680004FF0040C22E0644600234869DA0025FA52
:1056900002F202704A6901324A6101339AB29442BD
:1056A000F3D8CB8B14FA83F2488892FBF0F300FB1B
:1056B00013239BB2CB834B8B1C1BA4B24C834B8B11
:1056C0009BB283B1013E16F0FF060CD07D6F4C8873
:1056D000CB8B9BB2E31A042BD5DCCB8BE41AA4B2A0
:1056E000002CD1D1DDE7F0BC704700BF580000208E
:1056F0007CC7FF1F10B50A4B53F82040A36923F461
:105700000063A361A36923F48053A3610B212046A6
:10571000FFF751FB0C212046FFF74DFB10BD00BFEA
:105720007CC7FF1F38B51A4B53F82040194B53F86C
:10573000205095F82430012B19D0E36923F002039F
:10574000E361E36923F00103E361FFF7D3FF002383
:105750002B73012211462046FFF726FB012211463A
:105760002046FFF721FB6B7953B9002038BDA369B0
:1057700023F00103A361A36923F00203A361E4E71B
:1057800005F1250000F036FD00236B71EDE700BF49
:105790007CC7FF1F5800002070B50646314B53F8F8
:1057A0002050314B53F820406B6913F4006F07D041
:1057B00023692BB1FFF7B6FF012384F8263070BDB3
:1057C0006B6913F4805F08D0636933B13046FFF72B
:1057D000A9FF022384F8263070BD6B6913F0020F15
:1057E00003D0638B9BB2002B2DD16B6913F0010F9B
:1057F00002D0238B9BB253BB238B9BB21BB9AB69EB
:1058000023F00103AB61638B9BB21BB9AB6923F03F
:105810000203AB61638B9BB2A3B9238B9BB28BB9A1
:10582000AB6923F40063AB61AB6923F48053AB61D4
:10583000A36A1BB1E26A002120469847637953B9F5
:105840000023237370BD3046FFF70EFFCDE73046CF
:10585000FFF7B0FED0E704F1250000F0CBFC0023F9
:105860006371EDE77CC7FF1F5800002060B170B581
:1058700006460C460025204600F04EF80135183447
:10588000AE42F8D1002070BD0020704710B403680C
:1058900001248C4023EA04038A401A4302605DF825
:1058A000044B704700697047194B984204D0194B5C
:1058B000984220D0FF207047102927D8DFE801F058
:1058C000090C26262626262626262626260F1215EB
:1058D000180042F00100704742F00200704742F0A9
:1058E0000400704742F00800704702F00E00704755
:1058F00002F00D00704719B1012904D0FF20704754
:1059000002F00B00704702F007007047FF2070475D
:1059100000A0044000B0044038B504460068616847
:1059200050F82120237A012B3FD0002B3AD0022BB4
:1059300040D0657A2D0105F0100322F050051D437B
:10594000A37A9B0103F040032B4323F4E065E37A41
:10595000082B32D01B0203F4E0632B43227BD203DB
:1059600092B223F478231343627B120402F4702270
:105970001343A27B0AB143F080732268616842F846
:1059800021302168D1F8C02060680123834022EAD9
:105990000302E37B83401343C1F8C030E37A012B59
:1059A00021D038BD22F00202C3E722F0010242F00A
:1059B0000202BEE742F00302BBE71B4B5A6802F04B
:1059C0000F02FFF771FFFF280BD0174B5A6822F028
:1059D0000F025A605A6800F00F001043586000230D
:1059E000B8E70023B6E721694B69227D22B1012A7D
:1059F0000AD0012A05D10BE0616801228A4023EA1E
:105A0000020322695361CCE760680122824013439C
:105A1000656808680122AA4020EA0200627DAA4067
:105A200002430A60EDE700BF008004400020704799
:105A30002DE9F04180460C4615461F46FFF7F6FF5C
:105A4000144B53F82060144B13F810303BB135B1B0
:105A5000114B03EB40004378A5EB4305073D012CB8
:105A600010D044B1042C12D13B46EAB20121404689
:105A7000B047BDE8F0813B46EAB200214046B0475E
:105A8000BDE8F0813B46EAB200214046B047BDE8A0
:105A9000F08100BF000200206000002070B58EB0D1
:105AA00003781BB1012630460EB070BD314B1B7818
:105AB000002B4ED00022304B1A700B6800930A79ED
:105AC0008DF806208A798DF80820CA798DF807208C
:105AD000CA6804920A6905924A6906928A68039222
